:020000040800F2
:10000000A0080020D901000893140008C1120008BC
:100010009114000881030008D517000800000000B3
:1000200000000000000000000000000001160008B1
:100030008303000800000000951400080316000860
:10004000F3010008F3010008F3010008F3010008C0
:10005000F3010008F301000885030008F30100081C
:10006000F3010008F3010008F3010008F3010008A0
:10007000F3010008F3010008F3010008F301000890
:10008000F3010008F3010008F3010008F301000880
:10009000F3010008F3010008F3010008F301000870
:1000A000F3010008F3010008F3010008F301000860
:1000B000F3010008F3010008F3010008F301000850
:1000C000F3010008F3010008F3010008F301000840
:1000D000F3010008F3010008F3010008F301000830
:1000E000F3010008F3010008F3010008F301000820
:1000F000F3010008F3010008F3010008F301000810
:10010000F3010008F3010008F3010008F3010008FF
:10011000F3010008F3010008F3010008F3010008EF
:10012000F3010008F3010008F3010008F3010008DF
:10013000F30100080000000000000000F3010008C7
:10014000F3010008F3010008F3010008F3010008BF
:10015000F3010008F3010008F3010008F3010008AF
:10016000F3010008F3010008F3010008F30100089F
:10017000F3010008F3010008F3010008000000008B
:1001800000000000F3010008000000000000000073
:10019000F30100080000000000000000F301000867
:1001A000000000000000000000000000F301000853
:1001B000F3010008F3010008F3010008F30100084F
:1001C000F3010008DFF80CD000F094F80048004775
:1001D000B91E0008A00800200648804706480047CE
:1001E000FEE7FEE7FEE7FEE7FEE7FEE7FEE7FEE7E7
:1001F000FEE7FEE791160008C50100082DE9F05F53
:100200000546002092469B46884606468146402485
:100210001BE0284641464746224600F05AF853461E
:100220005A46C01A914110D311461846224600F092
:1002300041F82D1A67EB01084F46224601200021A4
:1002400000F038F817EB00094E41201EA4F101041C
:10025000DFDC484631462A464346BDE8F09F40EA87
:1002600001039B0703D009E008C9121F08C0042A34
:10027000FAD203E011F8013B00F8013B521EF9D21B
:100280007047D2B201E000F8012B491EFBD2704743
:100290000022F6E710B513460A4604461946FFF752
:1002A000F0FF204610BD421C10F8011B0029FBD1B5
:1002B000801A7047202A04DB203A00FA02F100205D
:1002C00070479140C2F1200320FA03F31943904094
:1002D0007047202A04DB203A21FA02F000217047FF
:1002E00021FA02F3D040C2F120029140084319469E
:1002F00070470000064C074D06E0E06840F001033F
:1003000094E8070098471034AC42F6D3FFF75EFF3D
:10031000101F0008301F000800F0F6B90D4910B595
:100320000B4808600C4800240168491C0160012941
:100330000CD1084800F030FD40B9064801F0ACF897
:10034000044801F06BF808B16FF00704204610BDB7
:10035000003001406C0100200800002038B54FF447
:100360008053009313460A4601460024034800F0D8
:1003700057FD00B1A41F204638BD00006C010020CD
:10038000FEE77047014800F01DB8000000000020A3
:100390007047000070B5044600F0B6F90546601CD1
:1003A00002D004480078044400F0AEF9401BA0429B
:1003B000FAD370BD0C00002010B10160002070471E
:1003C000012070470178074B01F01F0101228A408C
:1003D0001968114204D01A604068002800D0004714
:1003E00070470000143C01400346002009B1012081
:1003F00070475A60704700002DE9F04F0022DFF887
:1004000028B101264FF00F0906FA02F401EA0403AD
:10041000A3427DD122F003075F44D7F808889507EF
:100420004FEA157C09FA0CFA0AEA0805DFF8FC80A5
:10043000404502D14FF000082BE0DFF8F480404542
:1004400002D14FF0010824E0DFF8E880404502D1F6
:100450004FF002081DE0DFF8E080404502D14FF088
:10046000030816E0DFF8D480404502D14FF00408BD
:100470000FE0DFF8CC80404502D14FF0050808E0DE
:10048000DFF8C080404502D14FF0060801E04FF090
:10049000070808FA0CF8A84521D12B4DD5F800C063
:1004A0002CEA030CC5F800C02D1DD5F800C02CEABD
:1004B000030CC5F800C02D1DD5F800C02CEA030CB4
:1004C000C5F800C02D1DD5F800C02CEA030CC5F8F6
:1004D00000C0D7F8085825EA0A05C7F80858056883
:1004E00057000323BB409D430560D50800EB8507FB
:1004F000D7F820C055074FEAD56809FA08F52CEA65
:10050000050CC7F820C0C5689D43C560456800E07C
:1005100004E0A543456084689C438460521C102A13
:10052000FFF472AFBDE8F08F0030014000000240E0
:100530000004024000080240000C0240001002408B
:100540000014024000180240003C01402DE9F84F21
:1005500000224FF0010803254FF00F0E0B6808FA38
:1005600002F42340A3426ED14E68012E05D0022E24
:1005700003D0112E01D0122E12D186684FEA420C00
:1005800005FA0CF7BE43CF6807FA0CF737438760CC
:100590004668A6430C79C4F3001494403443446085
:1005A000C668570005FA07FC8C6826EA0C06BC40B2
:1005B0003443C4604C68022C01D0122C13D1D408EF
:1005C00000EB8404A346D4F8209054074FEAD46A81
:1005D0000EFA0AF629EA06090E6906FA0AF646EA4A
:1005E0000906CBF8206006680C7926EA0C0604F0B0
:1005F0000304BC40344304604C68E40060D5334CD1
:10060000266846F480462660246822F0030604F437
:10061000804400942E4C3444A446D4F808489607ED
:10062000370F0EFA07F6B4432A4EB04201D1002626
:100630001FE0294EB04201D101261AE0274EB042F8
:1006400002D1022615E03BE0254EB04201D103263F
:100650000FE0244EB04201D104260AE0224EB042FF
:1006600001D1052605E0214EB04201D1062600E069
:100670000726BE402643CCF808681D4E34684F68F4
:100680009C43FF0300D51C433460194E361D34686B
:100690004F689C43BF0300D51C433460144E08369A
:1006A00034684F689C43FF0200D51C433460104EF1
:1006B0000C3634684F689C43BF0200D51C4334603D
:1006C000521C102AFFF44AAFBDE8F88F44380240AC
:1006D00000300140000002400004024000080240D7
:1006E000000C0240001002400014024000180240BA
:1006F000003C01400069084000D0012070470AB169
:10070000816170470904FBE7014880687047000079
:100710000C00002002488168027811448160704713
:100720000C0000200B4810B5016841F40071016015
:10073000016841F480610160016841F480710160E9
:10074000032000F071F8002000F006F800F024F813
:10075000002010BD003C024070B50D4D04464FF422
:100760007A712878B1FBF0F00A490968B1FBF0F022
:1007700000F047FC48B9102C07D200222146501E39
:1007800000F032F800206C6070BD012070BD0000E8
:100790000C000020180000200B4882B0016841F4D2
:1007A00080410160006800F4804000900648001F0E
:1007B000016841F080510160006800F080500090B5
:1007C000072002B000F030B844380240002809DBAE
:1007D00000F01F02012191404009800000F1E0205B
:1007E000C0F8001170470000F0B40E4B1B680C46B7
:1007F000C3F30223C3F10705042D00D90425191DF5
:10080000072901D2002300E0DB1E012606FA05F1CC
:10081000491E214099409E40761E16403143F0BC4F
:1008200000F0D9BF0CED00E0064900F007020868AF
:100830004FF6FF03184040EA0220034A10430860C5
:10084000704700000CED00E00000FA052DE9F047CC
:100850000E46050065D0DFF81481D8F80000F7B225
:1008600000F00F00B04207D288F80070D8F80000FE
:1008700000F00F00B04254D128683D4C810712D5DA
:10088000400703D5206840F4E05020602878000736
:1008900003D5206840F4604020602068A96820F0FB
:1008A000F000084320602878C0072DD030496868E0
:1008B0000839012812D0022813D0032811D0096862
:1008C000890700292DDA216821F003010143216005
:1008D000FFF71AFF814641F2883A0EE00968890362
:1008E000EFE709688901ECE7FFF70EFFA0EB0901CC
:1008F000514502D90320BDE8F0872068696800F0FF
:100900000C00B0EB810FEFD1D8F80010404601F099
:100910000F01B14207D90770006800F00F00B04224
:1009200001D00120E7E72878400705D52068E9686D
:1009300020F4E050084320602878000706D520689E
:10094000296920F4604040EAC100206000F038F8D6
:100950002168084AC1F30311515CC8400649086088
:1009600006480068FFF7F8FE0020C4E7003C02409C
:1009700008380240F61E0008180000201000002071
:100980000448054900680968044AC1F38221515CA2
:10099000C84070471800002008380240061F0008B1
:1009A0000448054900680968044AC1F34231515CB2
:1009B000C84070471800002008380240061F000891
:1009C000224810B5006810F00C02214815D04110E3
:1009D000042A11D01D4C241F082A0FD00C2A0CD138
:1009E0002268236802F03F025B0221D52068C0F331
:1009F0008810A0FB010120E0084610BD2268236892
:100A000002F03F025B0205D52068C0F38810A0FB0E
:100A1000010104E02168C1F38811A1FB000100235A
:100A2000FFF7ECFB2168C1F30141491C49000AE0D2
:100A30002168C1F38811A1FB00010023FFF7DEFB51
:100A40002168C1F30271B0FBF1F010BD083802401B
:100A50000024F4002DE9F84F0546DFF828B30078AC
:100A6000ABF10407C007A7F1040451D0DBF8001074
:100A70005846C1F3810101290FD00168C1F38101FA
:100A8000022902D13968490207D40068C0F3810005
:100A9000032809D13868400206D52068800337D57D
:100AA0006868002872D033E06868B0F5803F10D0E5
:100AB000B0F5A02F206810D020F48030206020688E
:100AC00020F4802020606868A8B1FFF71DFE06466C
:100AD0000DE0206840F48030F4E740F4802020608E
:100AE000F7E700BFFFF710FE801B642878D8206866
:100AF0008003F7D50CE0FFF707FE064605E000BFD0
:100B0000FFF702FE801B6428F0D820688003F7D42A
:100B10002878DFF8749280074FF0000A46D5DBF89A
:100B20000010584611F00C0F0FD00168C1F381017D
:100B3000022902D13968490207D50068C0F3810053
:100B4000032809D13868400206D42068800715D5EB
:100B5000E86801281AD111E0E868C0B10120C9F89D
:100B60000000FFF7D1FD064605E000BFFFF7CCFD12
:100B7000801B0228BAD820688007F7D52068296929
:100B800020F0F80040EAC10020600FE0F7E0C9F86B
:100B900000A0FFF7B9FD064605E000BFFFF7B4FD72
:100BA000801B02281CD820688007F7D4287800070B
:100BB00027D5DFF8D0817548696908F16C0881B1E3
:100BC00001210160FFF7A0FD064604E0FFF79CFD50
:100BD000801B022804D8D8F800008007F6D510E062
:100BE00089E0C0F800A0FFF78FFD064605E000BFD2
:100BF000FFF78AFD801B02287DD8D8F80000800707
:100C0000F6D42878400769D55E484FF000083830A0
:100C10000068C0000BD45B483830016841F0805157
:100C2000016000684FF0010800F080500090584EBD
:100C30003068C00511D4306840F480703060FFF730
:100C400063FD009006E000BFFFF75EFD0099401ACB
:100C5000022850D83068C005F6D54A4EA8686836D4
:100C600001280FD00528306810D020F00100306036
:100C7000306820F004003060A868B8B1FFF744FD88
:100C800000900FE0306840F00100F4E740F004000D
:100C90003060F7E7FFF738FD0099411A41F28830DC
:100CA000814264D830688007F4D50EE0FFF72CFD50
:100CB000009007E0FFF728FD0099411A41F28830C3
:100CC000814254D830688007F4D4B8F1000F05D0C1
:100CD0002C483830016821F080510160A869A8B320
:100CE000DBF80010C1F38101022948D00228C9F8BD
:100CF00060A005D000E03AE0FFF706FD054639E0C8
:100D0000FFF702FD064604E0FFF7FEFC801B022809
:100D10002DD820688001F7D4F5E907010843E96878
:100D20001C4A490802EB0141AA6841EA82110843C2
:100D3000297C40EA0160297D40EA01703860012089
:100D4000C9F86000FFF7E0FC054606E015E000BFCB
:100D5000FFF7DAFC401B022809D820688001F7D58C
:100D60000BE000BFFFF7D0FC401B022802D9032094
:100D7000BDE8F88F20688001F4D40020F8E7012056
:100D8000F6E700000838024000004742800E474264
:100D9000007000400000FFFF90F85100704770B5F0
:100DA000040005D00025A56294F8510010B106E0BA
:100DB000012070BD84F85050204600F030F8022029
:100DC00084F851002068016821F040010160D4E9F5
:100DD00001010843D4E90312114308436169084340
:100DE000218B01F400710843E1690843216A08433B
:100DF000A16A084321680860A069042101EA104043
:100E0000616A0843216848602068C16921F4006173
:100E1000C1616565012084F85100002070BD7047F4
:100E20002DE9F84F044690F8500000270A9E1D4611
:100E300092468B464FF0010901280ED0012084F81C
:100E40005000FFF761FC804694F85100616801286A
:100E50000CD0B1F5827F07D102E00220BDE8F88F07
:100E6000A16809B9042801D00227C2E0BBF1000F34
:100E700027D0BAF1000F24D01DB394F851000428F4
:100E800002D0052084F8510000206065C4F838A025
:100E9000E587A587C4F830B0E586A5862064606440
:100EA00020680168490603D4016841F040010160EF
:100EB000E068B0F5006F606805D0E8B3012D46D05A
:100EC0007FE0012795E008B1012D39D1206B216821
:100ED0000088C860206B801C2063E08E401EE08686
:100EE0002EE02068816889070FD5E18E69B1B9F1DC
:100EF000010F0AD1216B0988C160206B801C20631F
:100F0000E08E401EE0864FF0000920688168C90726
:100F10000CD0E18F51B1C068A16B0880A06B801C20
:100F2000A063E08F401EE0874FF00109FFF7ECFB64
:100F3000A0EB0800B04200E009E001D3701C50D1E2
:100F4000E08E0028CDD1E08F0028CAD13FE0206B91
:100F5000216800780873206B401C2063E08E401EDF
:100F6000E0862EE02068816889070FD5E18E69B19F
:100F7000B9F1010F0AD1216B09780173206B401C74
:100F80002063E08E401EE0864FF0000920688168F3
:100F9000C9070CD0E18F51B1C068A16B0870A06B7C
:100FA000401CA063E08F401EE0874FF00109FFF76F
:100FB000ABFBA0EB0800B04202D3701C01D010E0E4
:100FC0007EB1E08E0028CDD1E08F0028CAD1424604
:100FD0003146204600F09EFA28B1012720206065A6
:100FE00007E0032705E0A06818B92068C168806899
:100FF0000090012084F85100002084F85000384609
:101000002CE710B5401EB0F1807F01D3012010BD48
:101010004FF0E02460610F21601700F0DCFB00203E
:10102000A06107202061002010BD70B5040004D02D
:1010300094F83900002510B106E0012070BD84F855
:101040003850204600F022F8242084F83900206827
:10105000C16821F40051C160204600F027FB2068E0
:10106000016921F4904101612068416921F02A0160
:1010700041612068C16841F40051C160E5632020EE
:1010800084F8390084F83A00002070BD10B586B0AD
:10109000044614216846FFF7FBF81349206888428C
:1010A00020D112480021026842F400320260006838
:1010B00000F4003005900D481038026842F001023B
:1010C0000260006800F0010005900C2000900220F2
:1010D000CDE90101032003900720049069460448EC
:1010E000FFF734FA06B010BD00440040403802401B
:1010F0000000024010B5074C01212046FFF77CF9A3
:1011000002212046FFF778F9A1152046FFF774F970
:10111000002010BD0000024070B5154886B00024C4
:10112000016841F0010101600068012500F0010043
:10113000009505900F48CDE901040F4E69463046F1
:10114000FFF704FA28020090CDE9015469463046C1
:101150000394FFF7FBF902200090CDE901546946A2
:1011600030460394FFF7F2F9FFF7D8F806B070BDE8
:101170003038024000001110000002402DE9F0411B
:1011800086B00E460746FF2019A18DF81400D1E95C
:101190000001CDE90301DFF860800024224602212E
:1011A0004046FFF7ACFA052201A903A8FFF7D6F8DD
:1011B0009DF80400022812D1BDF807507DB1B54258
:1011C0000BD9354609E00122694605A8FFF7C6F8A4
:1011D0009DF800003855641CE4B2AC42F3D3012200
:1011E00002214046FFF78BFA06B02046BDE8F081A9
:1011F0000B000000000000000000024070B50A4D26
:101200004FF48074002221462846FFF778FA052023
:10121000FFF7C0F8012221462846FFF770FA0520A3
:10122000FFF7B8F8002070BD000002402DE9FF472D
:1012300089461FA18246D1E90001CDE90201FFF7ED
:1012400063FA1D4E05466FF001084FF0FF3700248A
:10125000224602213046FFF752FA0522694602A8CB
:10126000FFF77CF89DF8000002280DD03C460122D3
:1012700002213046FFF743FAFFF746FA401B0F28DA
:101280000FD96FF002040EE09DF801104846494561
:1012900005D3024609495046FFF760F8E7E74446A0
:1012A000E5E7002CD3DB04B02046BDE8F087000062
:1012B0000A00000000000000000002402C00002096
:1012C000FEE7000070B519A00021D0E9005688B0F3
:1012D00014A4084600F0C6FB00F064FC6420FFF78D
:1012E00059F8CDE9045604AA0621002000F08AFB33
:1012F00000F02EFB06A903A8CDE9000102AB0722EE
:101300000021012000F086FA2046FEF7CCFFC3B290
:1013100000220094BDF80C10BDF8080000F035FB69
:1013200008B070BD53545F424C45000001020304F5
:101330000506000000B50DA28BB007CA07AB83E815
:1013400007000021084600F0BBFB0020039004903A
:10135000059007AA0A2106908DE807000346024679
:10136000014600F08FFA0BB000BD00000953545F36
:10137000424C455F41440000F0B587B014216846F7
:10138000FEF786FF22480024016841F00401016055
:10139000016801F004010591016841F080010160DC
:1013A000016801F080010591016841F001010160CF
:1013B000016801F001010591016841F0020101603D
:1013C0000068144F00F002004FF48176059000226F
:1013D00031463846FFF793F901250F480095CDE9CE
:1013E000010469463846FFF7B1F80096CDE901548B
:1013F000694638460394FFF7A9F8002211460620F3
:10140000FFF7F2F90620FFF7E1F907B0F0BD0000A1
:1014100030380240000002400000111010B50D49A4
:10142000016000244FF48271C0E90114C4604FF4DC
:1014300000720461C0E905421822C0E90724446231
:101440000A21C0E90A41FFF7AAFC00B101242046A5
:1014500010BD0000003001400C4810B50A49016081
:101460004FF4E1314160002181600C22C160C0E98C
:1014700004128161C161FFF7D8FD002803D0BDE8E7
:101480001040FEF785BF10BD004400402C01002035
:10149000FEE7704770470000F0B51B4887B0002496
:1014A000016841F480510160006800F480500590AB
:1014B00015481438016841F001010160016801F02C
:1014C00001010591016841F00201016000680225F7
:1014D00000F002000590C020CDE9000502AA032615
:1014E000052782E8D00069460848FFF72FF8082052
:1014F000CDE9000502AA694682E8D0000448FFF75A
:1015000025F807B0F0BD000044380240000002405A
:101510000004024038B504461248134B0068B0FB83
:10152000F3F04FF47A73584300906068B0F5827F0F
:101530000DD10B46009200228021204600F016F8C3
:1015400070B1606D40F020006065032038BD0098E8
:1015500030B1401E009020688068C0430006F6D578
:10156000002038BD1800002000366E012DE9F04142
:101570001D4617460E460446DDF8188008E0681C34
:1015800006D0FFF7C1F8A0EB0800A8420BD255B176
:101590002068806836EA000030D00020B842EED1E2
:1015A0000020BDE8F0812068416821F0E001416041
:1015B0006068B0F5827F0BD1A068B0F5004F02D013
:1015C000B0F5806F04D12068016821F0400101600E
:1015D000A06AB0F5005F09D12068016821F40051CC
:1015E00001602068016841F400510160012084F825
:1015F0005100002084F850000320D2E70120CDE7FD
:101600007047FFF787B8000030B593B034216846C3
:10161000FEF73EFE14210DA8FEF73AFE1A480025FB
:10162000016841F080510160006800F08050129024
:101630001648016821F4404141F48041016000688E
:10164000022400F4404012900120039010200094E6
:1016500006940490CDE907504FF4A8700990042037
:10166000CDE90A0468460C94FFF7F4F90DA90F20A0
:1016700081E83100E002CDE9100502210DA8FFF755
:10168000E5F813B030BD0000403802400070004063
:101690000548016841F47001016003494FF00060A2
:1016A000803908607047000088ED00E02DE9F041C6
:1016B000044600680169E26821F440511143016168
:1016C0002169A068E2690843616911430843216800
:1016D000CA6849F20C639A430243CA6020684169B0
:1016E000A26921F4407111434161E0691927642521
:1016F0003226B0F5004F354A354920684FF00008D2
:1017000006D0884201D0904236D1FFF749F935E042
:10171000884201D0904202D1FFF742F901E0FFF781
:101720002FF961684A18A0FB070148EB0803FEF790
:1017300065FD0146B0FBF5F00201B1FBF5F06FF07D
:101740001803584301EB800006EBC000B0FBF5F036
:1017500000F0F80002EB4002B1FBF5F0584301EB5A
:10176000800006EBC000B0FBF5F000F00700216838
:1017700010448860BDE8F081FFF702F961688B0FC3
:101780008A00A0FB0701FEF739FD0146B0FBF5F02A
:101790006FF01802504301EB800006EB0010B0FB25
:1017A000F5F000F0F002B1FBF5F002EB0012B1FB36
:1017B000F5F06FF01803584301EB800006EB0010C2
:1017C000B0FBF5F000F00F00D1E70000001401407D
:1017D00000100140FEE70907090E002804DB00F1B4
:1017E000E02080F80014704700F00F0000F1E020C6
:1017F00080F8141D704702E008C8121F08C1002AB3
:10180000FAD170477047002001E001C1121F002A81
:10181000FBD1704770B58AB01C468DF82000DDE919
:101820000E6500208DF82110009001908DF8222087
:10183000182102A8FEF72CFD3F20ADF808008A20F1
:10184000ADF80A0008A8049003200590072007902F
:10185000CDF818D0002102A800F0C0F9002802DA63
:10186000FF200AB070BD9DF800000028F9D1BDF836
:1018700001002080BDF803003080BDF805002880FD
:101880000020EEE72DE9FF4192B01EACDDE91C25FA
:1018900094E84201AC190E34282C03D9422016B02A
:1018A000BDE8F0818DF81C00BDF84C00ADF84C008F
:1018B00080B2ADF81D00BDF85000ADF8500080B208
:1018C000ADF81F008DF821308DF8222007AC0127DC
:1018D0008DF8235009A82A46FEF7C1FC0835E8B266
:1018E00032462654401CC5B260194146FEF7B7FC8B
:1018F000BDF88410A819ADF88410C0B22118BDF845
:1019000084200A80BDF88810801CADF88810C0B211
:101910002118BDF88820801C0A80C5B2182101A8B2
:10192000FEF7B6FC3F20ADF804008320ADF80600BA
:1019300011A8CDE9045000210697039401A800F0F6
:101940004DF9002801DAFF20A9E79DF84400A6E739
:1019500000B587B018216846FEF79AFC3F20ADF825
:10196000000040F20110ADF8020006A8049001202A
:1019700005900021684600F031F9002802DAFF20C6
:1019800007B000BD9DF81800FAE73FB5A7B09D1D50
:101990002E99802D02D942202BB030BDBDF89C007D
:1019A000ADF89C0080B2ADF80000BDF8A000ADF825
:1019B000A00080B28DF804206C46ADF802008DF8CE
:1019C00005301A46A01DFEF74AFCEDB2182120A8EA
:1019D000FEF75EFC3F20ADF880004FF48370ADF859
:1019E000820026A82294CDE92350012025900021D1
:1019F00020A800F0F3F8002801DAFF20CCE79DF8DA
:101A00009800C9E770B58D1CA8B01346802D02D987
:101A1000422028B070BD8DF800006C468DF8011092
:101A20000A4601261946A01CFEF719FCEDB2182142
:101A300020A8FEF72DFC3F20ADF880000C20ADF86B
:101A4000820026A825962294CDE92350002120A8C3
:101A500000F0C4F8002801DAFF20DAE79DF89800CA
:101A6000D7E7000070B5134D00B1E86100F07AF9D6
:101A7000114800F0CBF91048083000F0C7F90F4EBC
:101A8000002400BFC4EBC40000EB800006EB800123
:101A9000094800F0CAF9641CE4B2052CF2D32968A5
:101AA00009B100208847A868002802D0BDE870402E
:101AB000004770BD800400201C000020C4010020ED
:101AC00030B58FB00D46044620216846FEF7E0FB96
:101AD0008DF800401F2C00D91F2422466C46294651
:101AE000601CFEF7BCFB182108A8FEF7D1FB0820FC
:101AF000ADF820000920ADF822002020CDE90A40F1
:101B00000EA80C9001200D90002108A800F066F8A6
:101B1000002802DAFF200FB030BD9DF83800FAE748
:101B200038B5002004460090154800F08AF910B13D
:101B30000124204638BD6946114800F08EF911484D
:101B4000C268002AF5D0009880210830904700999B
:101B500010F0FF000FD081F888000B7A01F1080225
:101B6000042B08D19278C01E824204D10448083068
:101B700000F05BF9DDE7024800F04BF9D9E700001F
:101B80001C00002080040020054902680A60C26829
:101B9000CA6002690A6182698A61806888607047E8
:101BA0008004002000B587B018216846FEF770FB5E
:101BB0000320ADF80000ADF8020006A80490012053
:101BC00005900021684600F009F8002802DAFF209D
:101BD00007B000BD9DF81800FAE700002DE9F041BC
:101BE0000F46044601884088A8B061F39F2085B263
:101BF0004FF0000826A8CDF8908000F007F908E023
:101C00006946564800F029F954480099083800F010
:101C10000CF95248083800F0EBF80228F0DB228873
:101C20006088267B62F39F20A168ADF884000120C4
:101C30008DF886608DF80000BDF88400ADF80100D5
:101C40008DF80360324601A8FEF709FB444802699B
:101C500012B1311D684690471FB1002028B0BDE881
:101C6000F0814FF47A7600BFFEF74EFD4FEA000791
:101C7000FEF74AFDC01BB04262D8384800F0E1F8D8
:101C80000028F5D124A9354800F0E7F8249800F1A0
:101C90000803017A04293ED190F888205878D91C8D
:101CA000D21E0E2814D00F2804D0102848D03E2869
:101CB00031D118E04888A84242D160680F2802D08C
:101CC0000878A8BB27E0606909E06261206916E036
:101CD000B1F80100A84233D1C91C6069D21E9042FC
:101CE000F3D80246F1E708786368984213D1606937
:101CF000521E904200D802466261491C2069FEF7DC
:101D0000AEFA16482499083800F083F826A913483B
:101D100000F0DFF8A1E71148083800F092F840B170
:101D20000E4800F08EF820B10C482499083802E0E3
:101D300006E026A8249900F078F8CDF8908093E783
:101D4000249919B10548083800F063F826A903481A
:101D500000F0BFF84FF0FF3080E7000024000020C3
:101D60008004002000B587B0114800901148019010
:101D700011480490114803901148029011480690B0
:101D80006846FFF701FF4FF0C0610F48FEF714FBF4
:101D90000E4A00210C48FEF727FB002211460620C0
:101DA000FEF722FD0620FEF711FD07B000BD000082
:101DB00019110008F51000082D1200087D11000807
:101DC000FD1100081903000800000020D11D0008C3
:101DD00010B5064C01212046FEF78CFC012804D1E9
:101DE0000020FFF79DFE0028F4D010BD0000024047
:101DF00003460020EFF3108172B61A6801E0126802
:101E0000401C9A42FBD181F310887047006040600B
:101E10007047EFF3108272B60368C1E900300160C9
:101E2000086882F3108841607047EFF3108272B641
:101E3000086043684B604160486882F31088016025
:101E40007047EFF3108172B60268824201D101201F
:101E500000E0002081F31088704730B50D46EFF3A5
:101E6000108472B601682960006800F008F82968DB
:101E700000200860296884F31088486030BDEFF3C3
:101E8000108172B6D0E900231A6005C881F310886A
:101E90004260704730B50D46EFF3108472B641686A
:101EA00029604068FFF7EBFF296800200860296877
:101EB00084F31088486030BDFEF734FCFFF7A4FBC4
:101EC000FFF75AFAFFF7C8FAFFF7FCF9FFF732FA03
:101ED000FCE738B50C46054607E069462046FFF7A3
:101EE000D9FF28460099FFF794FF2046FFF7A9FF86
:101EF0000028F2D038BD0000000000000000010200
:101F000003040607080900000000010203040000A2
:101F1000301F0008000000202C000000F617000809
:101F20005C1F00082C000020740800000618000840
:101F300000000000000000000000000001000000A0
:101F400010000000000000000024F4000000000069
:0C1F500000000000000000000000000085
:04000005080001C529
:00000001FF
